:020000040000FA
:0400000007EF00F016
:0A0008005E827BED11F09EEF25F003
:1010000000253034580068685800686864006868D3
:10101000690068686E0068686F00686875006868D5
:1010200078004C454400454E4400535044004D4127
:101030004E00474F4F00414C54007A58007A6400EC
:101040007A69007A6E007A6F007A75007A7800000B
:1010500045C0D9FF46C0DAFFDECFF6FFDDCFF7FF90
:10106000000EF86E0800F550250AD8A43AEF08F0F3
:101070003CEF08F05DEF11F045C0D9FF46C0DAFF44
:10108000DE2A000EDD22000E0001DF6F000EDE6F93
:10109000DEC0E2F0DFC0E3F0E069E169000E636FFB
:1010A000000E626F9CEF08F0E28145C0D9FF46C098
:1010B000DAFFDE2A000EDD229CEF08F0E28355EF16
:1010C00008F0E28555EF08F0E28755EF08F0E28975
:1010D00055EF08F0000E636F010E626F9CEF08F091
:1010E00045C0D9FF46C0DAFFDECFF6FFDDCFF7FF00
:1010F000000EF86E0800F550496E4A6A4A50000A20
:10110000D8B485EF08F06AEF08F04950200AD8B447
:1011100064EF08F0030AD8B467EF08F0080AD8B4FF
:1011200061EF08F0060AD8B454EF08F01D0AD8B4ED
:101130005EEF08F06AEF08F062516311D8B4A3EFD4
:1011400008F0A5EF08F070EF08F0E2A1AAEF08F0B0
:10115000ACEF08F0ADEF08F0E29345C0D9FF46C010
:10116000DAFFDECFF6FFDDCFF7FF000EF86E0800E6
:10117000F5502A0AD8A4BFEF08F0C1EF08F0EAEF53
:1011800008F045C0D9FF46C0DAFFDE2A000EDD2296
:1011900047C0D9FF48C0DAFFDFCF49F0020EDE2694
:1011A000DFCF4AF0000EDD2249C0D9FF4AC0DAFF86
:1011B000DECFDEF0DDCFDFF0DFBFE3EF08F0E1EF01
:1011C00008F030EF09F0E281DE6DDF1FD8B0DF2BD1
:1011D00030EF09F045C0D9FF46C0DAFFDECF08F096
:1011E000DDCF09F0D0EC1AF008C0DEF009C0DFF066
:1011F00001EF09F045C0D9FF46C0DAFFDE2A000E34
:10120000DD22D00E496EFF0E4A6E45C0D9FF46C0A2
:10121000DAFFDECFF6FFDDCFF7FF000EF86E080035
:10122000F5504B6E4C6A49504B264A504C224C505C
:101230000AE10A0E4B5CD8A020EF09F023EF09F079
:10124000010E24EF09F0000E0001646F656B64511C
:101250006511D8A42EEF09F030EF09F0FAEF08F08D
:1012600045C0D9FF46C0DAFFDECFF6FFDDCFF7FF7E
:10127000000EF86E0800F5502E0AD8A442EF09F0CF
:1012800044EF09F0C6EF09F0000EE16F000EE06FC9
:1012900045C0D9FF46C0DAFFDE2A000EDD2245C078
:1012A000D9FF46C0DAFFDECFF6FFDDCFF7FF000E35
:1012B000F86E0800F5502A0AD8A461EF09F063EF30
:1012C00009F080EF09F045C0D9FF46C0DAFFDE2AF9
:1012D000000EDD2247C0D9FF48C0DAFFDFCF49F05A
:1012E000020EDE26DFCF4AF0000EDD2249C0D9FF14
:1012F0004AC0DAFFDECFE0F0DDCFE1F0C6EF09F063
:1013000045C0D9FF46C0DAFFDECF08F0DDCF09F0D7
:10131000D0EC1AF008C0E0F009C0E1F097EF09F056
:1013200045C0D9FF46C0DAFFDE2A000EDD22D00E0E
:10133000496EFF0E4A6E45C0D9FF46C0DAFFDECFC8
:10134000F6FFDDCFF7FF000EF86E0800F5504B6E8C
:101350004C6A49504B264A504C224C500AE10A0E26
:101360004B5CD8A0B6EF09F0B9EF09F0010EBAEF67
:1013700009F0000E0001666F676B66516711D8A413
:10138000C4EF09F0C6EF09F090EF09F045C0D9FFAE
:1013900046C0DAFFDECFF6FFDDCFF7FF000EF86EB6
:1013A0000800F550630AD8A4D8EF09F0DAEF09F085
:1013B00001EF0AF045C0D9FF46C0DAFFDE2A000E71
:1013C000DD2247C0D9FF48C0DAFFDFCF49F0020E67
:1013D000DE26DFCF4AF0000EDD2249C0D9FF4AC029
:1013E000DAFFDF50726F43C00AF044C00BF072C0E6
:1013F0000CF063EC20F00AC043F00BC044F07AEF2D
:1014000011F045C0D9FF46C0DAFFDECF01F0DDCFD5
:1014100002F00A0E036E100E046E000E066E030E2E
:10142000056EF6EC1EF001500210D8B41AEF0AF067
:101430001CEF0AF037EF0AF045C0D9FF46C0DAFFCB
:10144000DECF01F0DDCF02F00E0E036E100E046E43
:10145000000E066E030E056EF6EC1EF00150021033
:10146000D8A435EF0AF037EF0AF078EF0AF0030E50
:1014700045C0D9FF46C0DAFFDE26000EDD2247C098
:10148000D9FF48C0DAFFDFCF49F0020EDE26DFCFFA
:101490004AF0000EDD2249C0D9FF4AC0DAFFDF5012
:1014A0000001686F000E68BFFF0E696F6A6F6B6F97
:1014B0006C6F6D6F6E6F6F6F43C01CF044C01DF09A
:1014C00068C01EF069C01FF06AC020F06BC021F038
:1014D0006CC022F06DC023F06EC024F06FC025F008
:1014E000E7EC14F01CC043F01DC044F07AEF11F09B
:1014F00045C0D9FF46C0DAFFDECF01F0DDCF02F0F4
:101500000B0E036E100E046E000E066E020E056EBC
:10151000F6EC1EF001500210D8B491EF0AF093EFF0
:101520000AF0AEEF0AF045C0D9FF46C0DAFFDECFC1
:1015300001F0DDCF02F00F0E036E100E046E000EF0
:10154000066E020E056EF6EC1EF001500210D8A4D5
:10155000ACEF0AF0AEEF0AF0D6EF0AF0020E45C08B
:10156000D9FF46C0DAFFDE26000EDD2247C0D9FFD4
:1015700048C0DAFFDFCF49F0020EDE26DFCF4AF0A7
:10158000000EDD2249C0D9FF4AC0DAFFDECF68F085
:10159000DDCF69F00001000E69BFFF0E6A6F6B6F4F
:1015A0006C6F6D6F6E6F6F6F5CEF0AF045C0D9FFA7
:1015B00046C0DAFFDECFF6FFDDCFF7FF000EF86E94
:1015C0000800F550640AD8B4E8EF0AF0EAEF0AF030
:1015D000FEEF0AF045C0D9FF46C0DAFFDECFF6FFC6
:1015E000DDCFF7FF000EF86E0800F550690AD8A4A9
:1015F000FCEF0AF0FEEF0AF025EF0BF045C0D9FF33
:1016000046C0DAFFDE2A000EDD2247C0D9FF48C0FF
:10161000DAFFDFCF49F0020EDE26DFCF4AF0000E00
:10162000DD2249C0D9FF4AC0DAFFDECF68F0DDCF46
:1016300069F00001000E69BFFF0E6A6F6B6F6C6F7F
:101640006D6F6E6F6F6F5CEF0AF045C0D9FF46C0DB
:10165000DAFFDECF01F0DDCF02F03D0E036E100E9B
:10166000046E000E066E020E056EF6EC1EF00150C2
:101670000210D8B43EEF0BF040EF0BF05BEF0BF035
:1016800045C0D9FF46C0DAFFDECF01F0DDCF02F062
:10169000400E036E100E046E000E066E020E056EF6
:1016A000F6EC1EF001500210D8A459EF0BF05BEFDE
:1016B0000BF084EF0BF0020E45C0D9FF46C0DAFFF5
:1016C000DE26000EDD2247C0D9FF48C0DAFFDFCF9B
:1016D00049F0020EDE26DFCF4AF0000EDD2249C0BF
:1016E000D9FF4AC0DAFFDECF4BF0DDCF4CF04BC064
:1016F00068F04CC069F000016A6B6B6B6C6B6D6BD2
:101700006E6B6F6B5CEF0AF045C0D9FF46C0DAFF25
:10171000DECF01F0DDCF02F0160E036E100E046E68
:10172000000E066E030E056EF6EC1EF00150021060
:10173000D8A49DEF0BF09FEF0BF0DFEF0BF0030E43
:1017400045C0D9FF46C0DAFFDE26000EDD2247C0C5
:10175000D9FF48C0DAFFDFCF49F0020EDE26DFCF27
:101760004AF0000EDD2249C0D9FF4AC0DAFFDF503F
:101770004B6E4B500001736F746B756B766B776BB0
:10178000786B796B7A6B43C01CF044C01DF073C05A
:101790001EF074C01FF075C020F076C021F077C035
:1017A00022F078C023F079C024F07AC025F0D8EC7C
:1017B00019F01CC043F01DC044F07AEF11F045C091
:1017C000D9FF46C0DAFFDECF01F0DDCF02F0170E01
:1017D000036E100E046E000E066E020E056EF6EC21
:1017E0001EF001500210D8A4F8EF0BF0FAEF0BF046
:1017F00023EF0CF0020E45C0D9FF46C0DAFFDE260B
:10180000000EDD2247C0D9FF48C0DAFFDFCF49F024
:10181000020EDE26DFCF4AF0000EDD2249C0D9FFDE
:101820004AC0DAFFDECF4BF0DDCF4CF04BC073F097
:101830004CC074F00001756B766B776B786B796BCD
:101840007A6BC3EF0BF045C0D9FF46C0DAFFDECF9D
:10185000F6FFDDCFF7FF000EF86E0800F5506F0AB7
:10186000D8A435EF0CF037EF0CF05FEF0CF045C06B
:10187000D9FF46C0DAFFDE2A000EDD2247C0D9FFBD
:1018800048C0DAFFDFCF49F0020EDE26DFCF4AF094
:10189000000EDD2249C0D9FF4AC0DAFFDECF4BF08F
:1018A000DDCF4CF04BC073F04CC074F00001756B91
:1018B000766B776B786B796B7A6BC3EF0BF045C007
:1018C000D9FF46C0DAFFDECF01F0DDCF02F0460ED1
:1018D000036E100E046E000E066E020E056EF6EC20
:1018E0001EF001500210D8A478EF0CF07AEF0CF043
:1018F000A3EF0CF0020E45C0D9FF46C0DAFFDE268A
:10190000000EDD2247C0D9FF48C0DAFFDFCF49F023
:10191000020EDE26DFCF4AF0000EDD2249C0D9FFDD
:101920004AC0DAFFDECF4BF0DDCF4CF04BC073F096
:101930004CC074F00001756B766B776B786B796BCC
:101940007A6BC3EF0BF045C0D9FF46C0DAFFDECF9C
:1019500001F0DDCF02F0120E036E100E046E000EC9
:10196000066E030E056EF6EC1EF001500210D8A4B0
:10197000BCEF0CF0BEEF0CF0E6EF0CF0030E45C030
:10198000D9FF46C0DAFFDE26000EDD2247C0D9FFB0
:1019900048C0DAFFDFCF49F0020EDE26DFCF4AF083
:1019A000000EDD2249C0D9FF4AC0DAFFDECF70F059
:1019B000DDCF71F070C0D9FF71C0DAFFDCC0DFFF8E
:1019C000000E446E000E436E7AEF11F045C0D9FF51
:1019D00046C0DAFFDECF01F0DDCF02F0130E036E5A
:1019E000100E046E000E066E020E056EF6EC1EF072
:1019F00001500210D8A4FFEF0CF001EF0DF027EF1B
:101A00000DF0020E45C0D9FF46C0DAFFDE26000EFB
:101A1000DD2247C0D9FF48C0DAFFDFCF49F0020E10
:101A2000DE26DFCF4AF0000EDD2249C0D9FF4AC0D2
:101A3000DAFFDECF70F0DDCF71F070C0D9FF71C07A
:101A4000DAFFDCC0DEFFDDC0DDFFE0EF0CF045C0FB
:101A5000D9FF46C0DAFFDECFF6FFDDCFF7FF000E7D
:101A6000F86E0800F5506E0AD8A439EF0DF03BEF80
:101A70000DF060EF0DF045C0D9FF46C0DAFFDE2A59
:101A8000000EDD2247C0D9FF48C0DAFFDFCF49F0A2
:101A9000020EDE26DFCF4AF0000EDD2249C0D9FF5C
:101AA0004AC0DAFFDECF70F0DDCF71F070C0D9FF31
:101AB00071C0DAFFDCC0DEFFDDC0DDFFE0EF0CF05F
:101AC00045C0D9FF46C0DAFFDECF01F0DDCF02F01E
:101AD000430E036E100E046E000E066E020E056EAF
:101AE000F6EC1EF001500210D8A479EF0DF07BEF58
:101AF0000DF0A1EF0DF0020E45C0D9FF46C0DAFF90
:101B0000DE26000EDD2247C0D9FF48C0DAFFDFCF56
:101B100049F0020EDE26DFCF4AF0000EDD2249C07A
:101B2000D9FF4AC0DAFFDECF70F0DDCF71F070C0B0
:101B3000D9FF71C0DAFFDCC0DEFFDDC0DDFFE0EF02
:101B40000CF045C0D9FF46C0DAFFDECFF6FFDDCF8F
:101B5000F7FF000EF86E0800F550700AD8A4B3EF36
:101B60000DF0B5EF0DF0F9EF0DF045C0D9FF46C00F
:101B7000DAFFDE2A000EDD2247C0D9FF48C0DAFFB7
:101B8000DFCF49F0020EDE26DFCF4AF0000EDD2265
:101B900049C0D9FF4AC0DAFFDECF4BF0DDCF4CF0B1
:101BA0004BC073F04CC074F00001756B766B776BB3
:101BB000786B796B7A6B43C01CF044C01DF073C026
:101BC0001EF074C01FF075C020F076C021F077C001
:101BD00022F078C023F079C024F07AC025F0780E86
:101BE000266E59EC16F01CC043F01DC044F07AEF8D
:101BF00011F045C0D9FF46C0DAFFDECFF6FFDDCFDA
:101C0000F7FF000EF86E0800F550730AD8A40BEF2A
:101C10000EF00DEF0EF038EF0EF045C0D9FF46C0C4
:101C2000DAFFDE2A000EDD2247C0D9FF48C0DAFF06
:101C3000DFCF49F0020EDE26DFCF4AF0000EDD22B4
:101C400049C0D9FF4AC0DAFFDECF60F0DDCF61F0D6
:101C500043C00AF044C00BF060C00CF061C00DF04E
:101C600066EC1CF00AC043F00BC044F07AEF11F0B0
:101C700045C0D9FF46C0DAFFDECF01F0DDCF02F06C
:101C80001A0E036E100E046E000E066E030E056E25
:101C9000F6EC1EF001500210D8A451EF0EF053EFF5
:101CA0000EF093EF0EF0030E45C0D9FF46C0DAFFE9
:101CB000DE26000EDD2247C0D9FF48C0DAFFDFCFA5
:101CC00049F0020EDE26DFCF4AF0000EDD2249C0C9
:101CD000D9FF4AC0DAFFDF504B6E4B500001736FE3
:101CE000746B756B766B776B786B796B7A6B43C0C3
:101CF0001CF044C01DF073C01EF074C01FF075C00E
:101D000020F076C021F077C022F078C023F079C0AF
:101D100024F07AC025F0D6EC18F01CC043F01DC0AA
:101D200044F07AEF11F045C0D9FF46C0DAFFDECFAC
:101D300001F0DDCF02F01B0E036E100E046E000EDC
:101D4000066E020E056EF6EC1EF001500210D8A4CD
:101D5000ACEF0EF0AEEF0EF0D7EF0EF0020E45C076
:101D6000D9FF46C0DAFFDE26000EDD2247C0D9FFCC
:101D700048C0DAFFDFCF49F0020EDE26DFCF4AF09F
:101D8000000EDD2249C0D9FF4AC0DAFFDECF4BF09A
:101D9000DDCF4CF04BC073F04CC074F00001756B9C
:101DA000766B776B786B796B7A6B77EF0EF045C05B
:101DB000D9FF46C0DAFFDECFF6FFDDCFF7FF000E1A
:101DC000F86E0800F550750AD8A4E9EF0EF0EBEFB5
:101DD0000EF013EF0FF045C0D9FF46C0DAFFDE2A40
:101DE000000EDD2247C0D9FF48C0DAFFDFCF49F03F
:101DF000020EDE26DFCF4AF0000EDD2249C0D9FFF9
:101E00004AC0DAFFDECF4BF0DDCF4CF04BC073F0B1
:101E10004CC074F00001756B766B776B786B796BE7
:101E20007A6B77EF0EF045C0D9FF46C0DAFFDECF00
:101E300001F0DDCF02F0490E036E100E046E000EAD
:101E4000066E020E056EF6EC1EF001500210D8A4CC
:101E50002CEF0FF02EEF0FF057EF0FF0020E45C0F2
:101E6000D9FF46C0DAFFDE26000EDD2247C0D9FFCB
:101E700048C0DAFFDFCF49F0020EDE26DFCF4AF09E
:101E8000000EDD2249C0D9FF4AC0DAFFDECF4BF099
:101E9000DDCF4CF04BC073F04CC074F00001756B9B
:101EA000766B776B786B796B7A6B77EF0EF045C05A
:101EB000D9FF46C0DAFFDECF01F0DDCF02F01E0E03
:101EC000036E100E046E000E066E030E056EF6EC29
:101ED0001EF001500210D8B470EF0FF072EF0FF047
:101EE0008DEF0FF045C0D9FF46C0DAFFDECF01F01D
:101EF000DDCF02F0060E036E100E046E000E066EAD
:101F0000030E056EF6EC1EF001500210D8A48BEF04
:101F10000FF08DEF0FF0E4EF0FF045C0D9FF46C092
:101F2000DAFFDECF49F0DDCF4AF0020E4926000E7F
:101F30004A2249C0F6FF4AC0F7FF000EF86E0800BB
:101F4000F5CF72F0030E45C0D9FF46C0DAFFDE269A
:101F5000000EDD2247C0D9FF48C0DAFFDFCF49F0CD
:101F6000020EDE26DFCF4AF0000EDD2249C0D9FF87
:101F70004AC0DAFFDF504B6E4B500001736F746B39
:101F8000756B766B776B786B796B7A6B43C01CF0F3
:101F900044C01DF073C01EF074C01FF075C020F067
:101FA00076C021F077C022F078C023F079C024F009
:101FB0007AC025F072C026F059EC16F01CC043F030
:101FC0001DC044F07AEF11F045C0D9FF46C0DAFFDA
:101FD000DECF01F0DDCF02F01F0E036E100E046E97
:101FE000000E066E020E056EF6EC1EF00150021099
:101FF000D8B4FDEF0FF0FFEF0FF01AEF10F045C06F
:10200000D9FF46C0DAFFDECF01F0DDCF02F0070EC8
:10201000036E100E046E000E066E020E056EF6ECD8
:102020001EF001500210D8A418EF10F01AEF10F0B3
:1020300058EF10F045C0D9FF46C0DAFFDECF49F0B7
:10204000DDCF4AF0010E4926000E4A2249C0F6FFB4
:102050004AC0F7FF000EF86E0800F5CF72F0020ECE
:1020600045C0D9FF46C0DAFFDE26000EDD2247C09C
:10207000D9FF48C0DAFFDFCF49F0020EDE26DFCFFE
:102080004AF0000EDD2249C0D9FF4AC0DAFFDECF98
:102090004BF0DDCF4CF04BC073F04CC074F000013E
:1020A000756B766B776B786B796B7A6BC6EF0FF02D
:1020B00045C0D9FF46C0DAFFDECFF6FFDDCFF7FF20
:1020C000000EF86E0800F550780AD8B46AEF10F0E8
:1020D0006CEF10F080EF10F045C0D9FF46C0DAFF7A
:1020E000DECFF6FFDDCFF7FF000EF86E0800F550EB
:1020F000580AD8A47EEF10F080EF10F0B5EF10F082
:1021000045C0D9FF46C0DAFFDECFF6FFDDCFF7FFCF
:10211000000EF86E0800F5CF72F045C0D9FF46C03A
:10212000DAFFDE2A000EDD2247C0D9FF48C0DAFF01
:10213000DFCF49F0020EDE26DFCF4AF0000EDD22AF
:1021400049C0D9FF4AC0DAFFDECF4BF0DDCF4CF0FB
:102150004BC073F04CC074F00001756B766B776BFD
:10216000786B796B7A6BC6EF0FF045C0D9FF46C02C
:10217000DAFFDECF01F0DDCF02F04C0E036E100E61
:10218000046E000E066E020E056EF6EC1EF0015097
:102190000210D8B4CEEF10F0D0EF10F0EBEF10F04B
:1021A00045C0D9FF46C0DAFFDECF01F0DDCF02F037
:1021B0003A0E036E100E046E000E066E020E056ED1
:1021C000F6EC1EF001500210D8A4E9EF10F0EBEF8E
:1021D00010F029EF11F045C0D9FF46C0DAFFDECF7D
:1021E00049F0DDCF4AF0010E4926000E4A2249C0CF
:1021F000F6FF4AC0F7FF000EF86E0800F5CF72F048
:10220000020E45C0D9FF46C0DAFFDE26000EDD22F1
:1022100047C0D9FF48C0DAFFDFCF49F0020EDE2603
:10222000DFCF4AF0000EDD2249C0D9FF4AC0DAFFF5
:10223000DECF4BF0DDCF4CF04BC073F04CC074F0F0
:102240000001756B766B776B786B796B7A6BC6EF89
:102250000FF045C0D9FF46C0DAFFDECFF6FFDDCF75
:10226000F7FF000EF86E0800F550250AD8A43BEFE2
:1022700011F03DEF11F054EF11F045C0D9FF46C009
:10228000DAFFDE2A000EDD22000E026E250E016E40
:1022900043C003F044C004F09DEC21F0000E446EF6
:1022A000010E436E7AEF11F045C0D9FF46C0DAFF48
:1022B000DE2A000EDD22E0EF0CF045C0D9FF46C05B
:1022C000DAFFDECFF6FFDDCFF7FF000EF86E080075
:1022D000F550016E026A43C003F044C004F09DEC67
:1022E00021F045C0D9FF46C0DAFFDE2A000EDD220C
:1022F0004EEF11F012000600E1CFCFF0E2CFD0F0A8
:10230000D9CFD1F0DACFD2F0F3CFD3F0F4CFD4F0ED
:10231000F6CFD5F0F7CFD6F0F8CFD7F0F5CFD8F08D
:10232000F2A495EF11F097EF11F0A7EF11F0F294EE
:10233000F70ED66EC20ED76E0001FE05D8A4A3EF2D
:1023400011F0A5EF11F0A7EF11F0C6EC17F0F2A015
:10235000ACEF11F0AEEF11F09CEF12F0F29081B8FB
:10236000B4EF11F0B7EF11F0010EB8EF11F0000E5D
:102370000001CD6FCE6BF451CD1909E1F551CE19A5
:10238000D8B4C5EF11F0C7EF11F0E9EF11F0E45147
:10239000E511D8B4CEEF11F0D0EF11F0E9EF11F064
:1023A00081B8D5EF11F0D9EF11F0CD6BCD2BDBEF6C
:1023B00011F00001CD6BCD51F46FF56B81A8E3EF07
:1023C00011F0E5EF11F0E9EF11F0000EED6F010EE5
:1023D000EC6F81BAEEEF11F0F1EF11F0010EF2EFB8
:1023E00011F0000ECD6FCE6BF251CD1909E1F35112
:1023F000CE19D8B4FEEF11F000EF12F024EF12F076
:1024000001018C518D11D8B408EF12F00AEF12F0CF
:1024100024EF12F081BA0FEF12F014EF12F0000166
:10242000CD6BCD2B16EF12F00001CD6BCD51F26FBD
:10243000F36B81AA1EEF12F020EF12F024EF12F0DE
:10244000000EEB6F010EEA6F81BC29EF12F02CEF4A
:1024500012F0010E2DEF12F0000E0001CD6FCE6BC9
:10246000F051CD1909E1F151CE19D8B43AEF12F07B
:102470003CEF12F060EF12F001018A518B11D8B4D9
:1024800044EF12F046EF12F060EF12F081BC4BEF18
:1024900012F050EF12F00001CD6BCD2B52EF12F085
:1024A0000001CD6BCD51F06FF16B81AC5AEF12F0A2
:1024B0005CEF12F060EF12F0000EE96F010EE86FB2
:1024C00081BE65EF12F068EF12F0010E69EF12F0B5
:1024D000000E0001CD6FCE6BEE51CD1909E1EF5129
:1024E000CE19D8B476EF12F078EF12F09CEF12F01C
:1024F000010188518911D8B480EF12F082EF12F0F7
:102500009CEF12F081BE87EF12F08CEF12F0000109
:10251000CD6BCD2B8EEF12F00001CD6BCD51EE6F58
:10252000EF6B81AE96EF12F098EF12F09CEF12F085
:10253000000EE76F010EE66F9EACA1EF12F0A3EF65
:1025400012F0ECEF12F09E9CC4500001CE6FCD6BE8
:10255000C350CD25DA6F000ECE21DB6FDB05D8B07E
:10256000B4EF12F0B6EF12F0BEEF12F0230E966F3A
:10257000280E956FABEC24F0E6EF12F0020EDB5D57
:10258000D8B0C5EF12F0C7EF12F0CFEF12F0270E60
:10259000966F100E956FABEC24F0E6EF12F0030E81
:1025A000DB5DD8B0D6EF12F0D8EF12F0E0EF12F00A
:1025B0002A0E966FF80E956FABEC24F0E6EF12F052
:1025C0002E0E966FE00E956FABEC24F0000E016EB0
:1025D000230E2EEC24F0AC8A9EA8F1EF12F0F3EF5C
:1025E00012F00EEF13F09E98000E70EC25F00150E3
:1025F0000210D8B4FEEF12F000EF13F00AEF13F060
:10260000ACA205EF13F007EF13F000EF13F0AC9A54
:102610000EEF13F0000EA5EC23F0AD6E9EAA13EFA3
:1026200013F015EF13F029EF13F0ABA21AEF13F02C
:102630001CEF13F020EF13F0AB98AB8828EF13F0EA
:10264000AECFD9F0010E016E0001D9512EEC24F06D
:102650009E9AD8C0F5FFD7C0F8FFD6C0F7FFD5C007
:10266000F6FFD4C0F4FFD3C0F3FFD2C0DAFFD1C06D
:10267000D9FFD0C0E2FFCFC0E1FF5E92110001019F
:102680008E518F11D8A447EF13F049EF13F04BEFA1
:1026900013F0E6EF14F0000EFB6F000EFA6F000E61
:1026A000FA25D96E030EFB21DA6EF30EFA25E16EE0
:1026B000010EFB21E26EDFCFE7FFFA4BFB2BFBBFE6
:1026C0006BEF13F0FB5109E1030EFA5DD8A06BEF3D
:1026D00013F06DEF13F04FEF13F0000EF66FF30EE3
:1026E000E86F010EE96F69EC1EF00101F76FB8EFBA
:1026F00014F0F70ED66EC20ED76EF28A010E0001EC
:10270000FE6F000E0101E66F030EE76F000EE96F2A
:10271000040EE86FBDEC22F0E6C1FCF0E7C1FDF06D
:10272000E1EF14F0020E0001FE6FE1EF14F0000E75
:10273000E66F030EE76F000EE96F040EE86FBDEC65
:1027400022F0E6C1FAF0E7C1FBF0E1EF14F0000E71
:10275000E66F030EE76F000EE96F040EE86FBDEC45
:1027600022F0E6C1F8F0E7C1F9F0E1EF14F0000E55
:10277000E66F030EE76F000EE96F020EE86FBDEC27
:1027800022F0E6C1F8F1E7C1F9F10101F851F911C0
:10279000D8A4CDEF13F0CFEF13F0EBEF13F0F296D8
:1027A000000E876F000E866F89908A908B908C90B8
:1027B000000E896F000E886F000E8B6F000E8A6FFF
:1027C000000E8D6F000E8C6F000E0001E56F000E85
:1027D000E46FE1EF14F0F805F911D8A4F2EF13F06B
:1027E000F4EF13F0E1EF14F0F286000E876F010EA4
:1027F000866FE1EF14F0E1EF14F086518711D8A451
:1028000004EF14F006EF14F008EF14F0E1EF14F009
:10281000000EE66F030EE76F000EE96F020EE86F21
:10282000BDEC22F0E6C1FCF1E7C1FDF10101FC5174
:10283000FD11D8A41EEF14F020EF14F037EF14F0C0
:1028400089908A908B908C90000E896F000E886F13
:10285000000E8B6F000E8A6F000E8D6F000E8C6F56
:10286000000E0001E56F000EE46FE1EF14F0040EBE
:10287000FC19FD11D8A43FEF14F041EF14F057EF0D
:1028800014F08980000E896F010E886F81BE4BEFB6
:1028900014F04FEF14F0F16BF12B51EF14F0010134
:1028A000F16BF1510001EE6FEF6BE1EF14F0030EED
:1028B000FC19FD11D8A45FEF14F061EF14F077EF6D
:1028C00014F08A80000E8B6F010E8A6F81BC6BEF53
:1028D00014F06FEF14F0F16BF12B71EF14F00101B4
:1028E000F16BF1510001F06FF16BE1EF14F0020EAA
:1028F000FC19FD11D8A47FEF14F081EF14F097EFCD
:1029000014F08B80000E8D6F010E8C6F81BA8BEFEF
:1029100014F08FEF14F0F16BF12B91EF14F0010133
:10292000F16BF1510001F26FF36BE1EF14F0FC0574
:10293000FD11D8A49EEF14F0A0EF14F0FBEF13F0FC
:102940008C80000E0001E56F010EE46F81B8ABEFE3
:1029500014F0B0EF14F00101F16BF12BB2EF14F0B1
:102960000101F16BF1510001F46FF56BE1EF14F02F
:10297000F751F16FF26BF251000AD8B4C2EF14F0C4
:10298000E1EF14F0F151000AD8B479EF13F0010A25
:10299000D8B492EF13F0030AD8B497EF13F0010AFA
:1029A000D8B4A7EF13F0070AD8B4B7EF13F0010AB1
:1029B000D8B4FDEF13F0030AD8B4E1EF14F0E1EF5F
:1029C00014F0000E01018F6F000E8E6F12001EC0FA
:1029D00036F01FC037F020C038F021C039F022C0D7
:1029E0003AF023C03BF024C03CF025C03DF03DBE92
:1029F000FCEF14F0FFEF14F0010E00EF15F0000EE5
:102A0000346E356A34503510D8B409EF15F00BEF39
:102A100015F01BEF15F03D1E3C1E3B1E3A1E391EE5
:102A2000381E371E366C000E3722382239223A22E1
:102A30003B223C223D220001E1BF21EF15F023EFB4
:102A400015F024EF15F0E293E1BF31EF15F0E151FD
:102A500006E1E005D8B02FEF15F031EF15F037EFB4
:102A600015F0000E316E010E306E3BEF15F0E0C038
:102A700030F0E1C031F0DEC032F0DFC033F034506E
:102A80003510D8A446EF15F048EF15F04FEF15F0CC
:102A9000E2A54DEF15F04FEF15F052EF15F03206AD
:102AA000D8A03306000E3F6E1F0E3E6E000E0101D1
:102AB000B26FD7EF15F03E06D8A03F06930E3E2426
:102AC000D96E010E3F20DA6E36C001F037C002F039
:102AD00038C003F039C004F03AC005F03BC006F03E
:102AE0003CC007F03DC008F00A0E096E000E0A6EE9
:102AF000000E0B6E000E0C6E000E0D6E000E0E6EB4
:102B0000000E0F6E000E106E29EC1DF001C026F0B5
:102B100002C027F003C028F004C029F005C02AF045
:102B200006C02BF007C02CF008C02DF026C013F013
:102B300028C014F016EC26F01350300FDF6E30066C
:102B4000D8A031063206D8A0330636C001F037C00F
:102B500002F038C003F039C004F03AC005F03BC0C1
:102B600006F03CC007F03DC008F00A0E096E000EEA
:102B70000A6E000E0B6E000E0C6E000E0D6E000E37
:102B80000E6E000E0F6E000E106EA2EC1BF001C058
:102B900036F002C037F003C038F004C039F005C089
:102BA0003AF006C03BF007C03CF008C03DF03FBE25
:102BB000E2EF15F03F5008E13E04D8A0E2EF15F037
:102BC000E4EF15F015EF16F03650371038103910C5
:102BD0003A103B103C103D10D8A4F1EF15F0F3EF84
:102BE00015F05BEF15F031BE00EF16F0315006E145
:102BF0003004D8B0FEEF15F000EF16F05BEF15F0E3
:102C000033BE0BEF16F0335008E13204D8A00BEFBF
:102C100016F00DEF16F015EF16F00001E2B313EF0A
:102C200016F015EF16F05BEF15F034503510D8A400
:102C30001CEF16F01EEF16F026EF16F00001E2A5CD
:102C400024EF16F026EF16F044EF16F03E06D8A05B
:102C50003F0634503510D8A430EF16F032EF16F09E
:102C600038EF16F0000E2F6E2B0E2E6E3CEF16F086
:102C7000000E2F6E2D0E2E6E930E3E24D96E010E79
:102C80003F20DA6E2EC0DFFF1CC011F01DC012F015
:102C9000930E3E24136E010E3F20146E32C015F0C9
:102CA00033C016F002EC22F011C01CF012C01DF06F
:102CB00012000001E1BF5FEF16F061EF16F062EF66
:102CC00016F0E293E1BF6FEF16F0E15106E1E00587
:102CD000D8B06DEF16F06FEF16F075EF16F0000E2E
:102CE000346E010E336E79EF16F0E0C033F0E1C0C0
:102CF00034F0DEC035F0DFC036F0E2A982EF16F026
:102D000084EF16F088EF16F0FE0E3526FF0E362201
:102D10001EC037F01FC038F020C039F021C03AF093
:102D200022C03BF023C03CF024C03DF025C03EF063
:102D3000000E406E1F0E3F6E000E0101B26F54EF89
:102D400017F03F06D8A040060F0E3714416E426AB6
:102D500042BEB4EF16F0425009E10A0E415CD8A021
:102D6000B4EF16F0B6EF16F0BEEF16F0570E412492
:102D7000416E000E4220426EC4EF16F0300E412428
:102D8000416E000E4220426EBF0E276EFF0E286E6F
:102D90002650296E2A6A2750292628502A222A508E
:102DA0000AE11A0E295CD8A0D8EF16F0DBEF16F076
:102DB000010EDCEF16F0000E2F6E306A2F5030102F
:102DC000D8B4E5EF16F0E7EF16F017EF17F09F0E07
:102DD000276EFF0E286E200E4110296E000E421045
:102DE0002A6E2750292628502A222A500AE11A0E34
:102DF000295CD8A0FEEF16F001EF17F0010E02EFEC
:102E000017F0000E316E326A31503210D8B40BEF29
:102E100017F00DEF17F017EF17F041C007F042C0A1
:102E200008F041EC25F007C041F008C042F0930ED5
:102E30003F24D96E010E4020DA6E41C0DFFF330619
:102E4000D8A034063506D8A0360637C027F038C0DB
:102E500028F039C029F03AC02AF03BC02BF03CC022
:102E60002CF03DC02DF03EC02EF0050E41EF17F0C6
:102E7000D8902E322D322C322B322A32293228325F
:102E80002732E82E38EF17F027C037F028C038F087
:102E900029C039F02AC03AF02BC03BF02CC03CF0DE
:102EA0002DC03DF02EC03EF040BE60EF17F0405008
:102EB00009E1020E3F5CD8A060EF17F062EF17F057
:102EC00093EF17F03750381039103A103B103C1080
:102ED0003D103E10D8A46FEF17F071EF17F0A1EF7F
:102EE00016F034BE7EEF17F0345006E13304D8B04C
:102EF0007CEF17F07EEF17F0A1EF16F036BE89EFEA
:102F000017F0365008E13504D8A089EF17F08BEFA1
:102F100017F093EF17F00001E2B391EF17F093EF82
:102F200017F0A1EF16F00001E2A999EF17F09BEF5F
:102F300017F0B1EF17F03F06D8A04006930E3F24DC
:102F4000D96E010E4020DA6E26C0DFFF3F06D8A002
:102F50004006930E3F24D96E010E4020DA6E300EEB
:102F6000DF6E1CC011F01DC012F0930E3F24136ED3
:102F7000010E4020146E35C015F036C016F002EC7C
:102F800022F011C01CF012C01DF012000001FA5115
:102F9000FC5FFB51FD5B000ECC6F000ECB6FF85158
:102FA000F911D8B4D6EF17F0D8EF17F001EF18F0F9
:102FB000640EF627000EF723F851F61907E1F951D0
:102FC000F719D8A4E6EF17F0E8EF17F005EF18F0BF
:102FD000000E016E240E2EEC24F0DFC1C7F0E0C11C
:102FE000C8F0E1C1C9F0E2C1CAF0C70E036E000E1D
:102FF000046E00EC27F0C282000E0001CC6F010EBF
:10300000CB6F000EF76F000EF66FCB51CC11D8A42A
:103010000CEF18F00EEF18F030EF18F0EC51ED1146
:10302000D8B415EF18F017EF18F030EF18F021EEC4
:10303000CBF010EEA2F0070EDBCFE3FFE806FCE2D8
:10304000A20E036E000E046E00EC27F0000E0001CD
:10305000CC6F010ECB6FAC8A000EED6F000EEC6FE3
:10306000CB51CC11D8A437EF18F039EF18F05BEF43
:1030700018F0EA51EB11D8B440EF18F042EF18F015
:103080005BEF18F021EEC3F010EEAAF0070EDBCFD5
:10309000E3FFE806FCE2AA0E036E000E046E00ECED
:1030A00027F0000E0001CC6F010ECB6FAC8A000E32
:1030B000EB6F000EEA6FCB51CC11D8A462EF18F081
:1030C00064EF18F086EF18F0E851E911D8B46BEF0F
:1030D00018F06DEF18F086EF18F021EEBBF010EE4F
:1030E000B2F0070EDBCFE3FFE806FCE2B20E036EA0
:1030F000000E046E00EC27F0000E0001CC6F010EF4
:10310000CB6FAC8A000EE96F000EE86FCB51CC118B
:10311000D8A48DEF18F08FEF18F0B1EF18F0E6514A
:10312000E711D8B496EF18F098EF18F0B1EF18F057
:1031300021EEB3F010EEBAF0070EDBCFE3FFE806A6
:10314000FCE2BA0E036E000E046E00EC27F0000ED7
:103150000001CC6F010ECB6FAC8A000EE76F000E42
:10316000E66FCB51CC11D8A4B8EF18F0BAEF18F035
:10317000D5EF18F021EEDAF010EEC2F0040EDBCF3E
:10318000E3FFE806FCE2C20E036E000E046E00ECE4
:1031900027F0FCC095F0FDC096F0ABEC24F0000EDB
:1031A000016E230E2EEC24F0AC8A12000001E1BF68
:1031B000DCEF18F0DEEF18F0DFEF18F0E293E1BF7C
:1031C000ECEF18F0E15106E1E005D8B0EAEF18F0B5
:1031D000ECEF18F0F2EF18F0000E2F6E010E2E6ECD
:1031E000F6EF18F0E0C02EF0E1C02FF0DEC030F0B6
:1031F000DFC031F01EC032F01FC033F020C034F009
:1032000021C035F022C036F023C037F024C038F09A
:1032100025C039F0000E3B6E1F0E3A6E000E010104
:10322000B26F89EF19F03A06D8A03B06930E3A2404
:10323000D96E010E3B20DA6E32C001F033C002F0CD
:1032400034C003F035C004F036C005F037C006F0D6
:1032500038C007F039C008F00A0E096E000E0A6E79
:10326000000E0B6E000E0C6E000E0D6E000E0E6E3C
:10327000000E0F6E000E106ECFEC20F001C026F095
:1032800002C027F003C028F004C029F005C02AF0CE
:1032900006C02BF007C02CF008C02DF02650300FD0
:1032A000DF6E2E06D8A02F063006D8A0310632C019
:1032B00001F033C002F034C003F035C004F036C072
:1032C00005F037C006F038C007F039C008F00A0E24
:1032D000096E000E0A6E000E0B6E000E0C6E000ED4
:1032E0000D6E000E0E6E000E0F6E000E106EEBECEB
:1032F0001FF001C032F002C033F003C034F004C04C
:1033000035F005C036F006C037F007C038F008C009
:1033100039F03A503B10D8B490EF19F092EF19F011
:10332000C3EF19F032503310341035103610371007
:1033300038103910D8A49FEF19F0A1EF19F013EF4E
:1033400019F02FBEAEEF19F02F5006E12E04D8B0C1
:10335000ACEF19F0AEEF19F013EF19F031BEB9EF81
:1033600019F0315008E13004D8A0B9EF19F0BBEFE3
:1033700019F0C3EF19F00001E2B3C1EF19F0C3EF88
:1033800019F013EF19F01CC011F01DC012F0930ECC
:103390003A24136E010E3B20146E30C015F031C07C
:1033A00016F002EC22F011C01CF012C01DF0120049
:1033B0000001E1BFDEEF19F0E0EF19F0E1EF19F0E5
:1033C000E293E1BFEEEF19F0E15106E1E005D8B07C
:1033D000ECEF19F0EEEF19F0F4EF19F0000E2F6E8C
:1033E000010E2E6EF8EF19F0E0C02EF0E1C02FF0C4
:1033F000DEC032F0DFC033F01EC034F01FC035F045
:1034000020C036F021C037F022C038F023C039F098
:1034100024C03AF025C03BF0000E3D6E1F0E3C6EFE
:10342000000E0101B26F000E316E000E306E5EEFC5
:103430001AF03C06D8A03D06070E3414306E316AEF
:10344000930E3C24D96E010E3D20DA6E3050300FC1
:10345000DF6E2E06D8A02F063206D8A0330634C061
:1034600026F035C027F036C028F037C029F038C024
:103470002AF039C02BF03AC02CF03BC02DF0040EDE
:103480004BEF1AF0D8902D322C322B322A322932BF
:10349000283227322632E82E42EF1AF026C034F0C6
:1034A00027C035F028C036F029C037F02AC038F0E0
:1034B0002BC039F02CC03AF02DC03BF03DBE69EF77
:1034C0001AF03D5008E13C04D8A069EF1AF06BEF08
:1034D0001AF09CEF1AF034503510361037103810AF
:1034E00039103A103B10D8A478EF1AF07AEF1AF09E
:1034F00019EF1AF02FBE87EF1AF02F5006E12E04B5
:10350000D8B085EF1AF087EF1AF019EF1AF033BE32
:1035100092EF1AF0335008E13204D8A092EF1AF07B
:1035200094EF1AF09CEF1AF00001E2B39AEF1AF050
:103530009CEF1AF019EF1AF00001E2A9A2EF1AF0BD
:10354000A4EF1AF0BBEF1AF030503110D8B4ABEF43
:103550001AF0ADEF1AF0BBEF1AF03C06D8A03D060A
:10356000930E3C24D96E010E3D20DA6E300EDF6ED4
:103570003206D8A033061CC011F01DC012F0930E05
:103580003C24136E010E3D20146E32C015F033C082
:1035900016F002EC22F011C01CF012C01DF0120057
:1035A000000E166E000E156E000E0F6E000E0E6EE3
:1035B000DCEF1AF0084A092A010E146E08C0F6FF63
:1035C00009C0F7FF000EF86E0800F550200AD8B4C5
:1035D000ECEF1AF0EEEF1AF00DEF1BF0F70E0A6E9B
:1035E000FF0E0B6E08C0F6FF09C0F7FF000EF86E65
:1035F0000800F5500C6E0D6A0A500C260B500D2277
:103600000D5009E1050E0C5CD8A009EF1BF00BEF83
:103610001BF00DEF1BF0000E146E14C010F0116AB9
:1036200010501110D8A417EF1BF019EF1BF0DAEFB0
:103630001AF023EF1BF0000E0F6E010E0E6E084AFB
:10364000092A5CEF1BF008C0F6FF09C0F7FF000E67
:10365000F86E0800F5500A6E0B6A0B50000AD8B4D9
:1036600034EF1BF05CEF1BF00A502B0AD8B41FEFAD
:103670001BF0060AD8B41BEF1BF05CEF1BF015C063
:1036800001F016C002F0000E046E0A0E036E4AEC42
:1036900027F008C0F6FF09C0F7FF000EF86E08001B
:1036A000F550015E000E025A300E0124156E000E18
:1036B0000220166E1FEF1BF0D00E0A6EFF0E0B6E6F
:1036C00008C0F6FF09C0F7FF000EF86E0800F550BD
:1036D0000C6E0D6A0A500C260B500D220D500AE19B
:1036E0000A0E0C5CD8A077EF1BF07AEF1BF0010EEE
:1036F0007BEF1BF0000E126E136A12501310D8A449
:1037000084EF1BF086EF1BF03FEF1BF00E500F1005
:10371000D8A48DEF1BF08FEF1BF09DEF1BF015C0B1
:103720000AF016C00BF00A1E0B1E0A4A0B2A0AC02A
:1037300008F00BC009F0A1EF1BF015C008F016C08F
:1037400009F01200000E126E10BEABEF1BF0A9EFD5
:103750001BF0BDEF1BF0101E0F1E0E1E0D1E0C1ECB
:103760000B1E0A1E096C000E0A220B220C220D22CF
:103770000E220F221022010E126E08BEC4EF1BF0A3
:10378000C2EF1BF0D6EF1BF0081E071E061E051E1B
:10379000041E031E021E016C000E022203220422DC
:1037A0000522062207220822010E121A20EE13F02B
:1037B000070EDE6AE806FDE209500A100B100C1035
:1037C0000D100E100F101010D8B4E9EF1BF0EBEF36
:1037D0001BF03DEF1CF0010E116EF9EF1BF0D890BD
:1037E00009360A360B360C360D360E360F361036C5
:1037F000112A10AEFEEF1BF000EF1CF0EFEF1BF0F4
:10380000D89013361436153616361736183619363C
:103810001A360950015C0A5002580B5003580C50DC
:1038200004580D5005580E5006580F5007581050A8
:103830000858D8A01EEF1CF020EF1CF031EF1CF050
:103840000950015E0A50025A0B50035A0C50045A98
:103850000D50055A0E50065A0F50075A1050085A6C
:103860001380D89010320F320E320D320C320B32E0
:103870000A320932112E00EF1CF01250D8B443EF77
:103880001CF045EF1CF055EF1CF01A1E191E181EF7
:10389000171E161E151E141E136C000E1422152260
:1038A00016221722182219221A2213C001F014C05E
:1038B00002F015C003F016C004F017C005F018C0E0
:1038C00006F019C007F01AC008F0120021EED3F07C
:1038D00010EE0FF0060EDBCFE3FFE806FCE20CC0B3
:1038E0001AF00DC01BF01A501B10D8A47AEF1CF070
:1038F0007CEF1CF080EF1CF00F0E1A6E000E1B6E9A
:103900001AC001F01BC002F0E5EC26F001C01EF069
:1039100002C01FF0E0C01CF0E1C01DF01DBE93EF1F
:103920001CF095EF1CF0AAEF1CF01E501C5C1D5003
:10393000800A0E6E1F50800A0E58D8A0A2EF1CF00D
:10394000A4EF1CF0A6EF1CF0AAEF1CF01CC01EF0A8
:103950001DC01FF01EC01CF01FC01DF0DEC018F0FF
:10396000DFC019F00001E2B1B8EF1CF0BAEF1CF0B3
:10397000D7EF1CF0C8EF1CF0000E026E200E016E97
:103980000AC003F00BC004F09DEC21F01E4A1F2A70
:1039900018501E5C1F50800A0E6E1950800A0E5877
:1039A000D8A0D5EF1CF0D7EF1CF0BCEF1CF0000E38
:1039B000176E000E166EF0EF1CF01AC0D9FF1BC078
:1039C000DAFFDF500E6E0E50016E026A0AC003F07D
:1039D0000BC004F09DEC21F01A4A1B2A164A172A44
:1039E0001C50165C1750800A0E6E1D50800A0E582F
:1039F000D8A0FDEF1CF0FFEF1CF0DDEF1CF0000184
:103A0000E2A105EF1DF007EF1DF024EF1DF015EF0B
:103A10001DF0000E026E200E016E0AC003F00BC0F6
:103A200004F09DEC21F01E4A1F2A18501E5C1F5006
:103A3000800A0E6E1950800A0E58D8A022EF1DF091
:103A400024EF1DF009EF1DF01EC00AF01FC00BF09F
:103A50001200000E126E08BE32EF1DF030EF1DF0A6
:103A600044EF1DF0081E071E061E051E041E031E41
:103A7000021E016C000E02220322042205220622ED
:103A800007220822010E126E10BE4BEF1DF049EF07
:103A90001DF05BEF1DF0101E0F1E0E1E0D1E0C1EE6
:103AA0000B1E0A1E096C000E0A220B220C220D228C
:103AB0000E220F22102209500A100B100C100D10AC
:103AC0000E100F101010D8B468EF1DF06AEF1DF043
:103AD000B2EF1DF0010E116E78EF1DF0D89009368F
:103AE0000A360B360C360D360E360F361036112AC6
:103AF00010AE7DEF1DF07FEF1DF06EEF1DF0095051
:103B0000015C0A5002580B5003580C5004580D50D9
:103B100005580E5006580F50075810500858D8A096
:103B200094EF1DF096EF1DF0A6EF1DF00950015E19
:103B30000A50025A0B50035A0C50045A0D50055AA1
:103B40000E50065A0F50075A1050085AD89010328B
:103B50000F320E320D320C320B320A320932112E74
:103B60007FEF1DF01250D8B4B8EF1DF0BAEF1DF082
:103B7000CAEF1DF0081E071E061E051E041E031EAA
:103B8000021E016C000E02220322042205220622DC
:103B90000722082201C001F002C002F003C003F0B6
:103BA00004C004F005C005F006C006F007C007F029
:103BB00008C008F01200800E00017E5DD8A0E3EF7F
:103BC0001DF0E5EF1DF0EFEF1DF0000E0101856F18
:103BD0004B0E846F00017B697C6968EF1EF07BC02F
:103BE00087F07CC088F07E5109E1020E7D5DD8A08F
:103BF000FCEF1DF0FEEF1DF00AEF1EF0FF0E7D251D
:103C00008B6FFF0E7E218C6F000E8A6F000E896F06
:103C100012EF1EF0000E8C6F010E8B6F000E8A6F7C
:103C2000010E896F870E4D6E000E4E6E7FC04FF0F5
:103C300080C050F081C051F082C052F0DEEC24F020
:103C40004DC085F04EC086F000017D517E11D8B484
:103C50002CEF1EF02EEF1EF064EF1EF086BF33EF48
:103C60001EF035EF1EF064EF1EF0FF0E556EFF0ED6
:103C7000566E7DC057F07EC058F0555057265650AE
:103C800058225750855D8651800A596E5850800AD7
:103C90005958D8A04EEF1EF050EF1EF058EF1EF00E
:103CA000FF0E7D25836FFF0E7E21846F5CEF1EF07B
:103CB00085C083F086C084F083517B25D96E845102
:103CC0007C21DA6E000EDF6E85C07BF086C07CF052
:103CD0001200E8C1E3F1E9C1E4F1320E0101E56F40
:103CE000100EE66F6EEC24F00101E351E411D8A44C
:103CF0007CEF1EF07EEF1EF081EF1EF0000EF5EF60
:103D00001EF0E8C1E3F1E9C1E4F1260EE56F100E03
:103D1000E66F6EEC24F00101E351E411D8A493EFB7
:103D20001EF095EF1EF098EF1EF0010EF5EF1EF05D
:103D3000E8C1E3F1E9C1E4F12A0EE56F100EE66F88
:103D40006EEC24F00101E351E411D8A4AAEF1EF0B7
:103D5000ACEF1EF0AFEF1EF0020EF5EF1EF0E8C163
:103D6000E3F1E9C1E4F1360EE56F100EE66F6EEC9B
:103D700024F00101E351E411D8A4C1EF1EF0C3EF18
:103D80001EF0C6EF1EF0030EF5EF1EF0E8C1E3F1E2
:103D9000E9C1E4F12E0EE56F100EE66F6EEC24F033
:103DA0000101E351E411D8A4D8EF1EF0DAEF1EF0C0
:103DB000DDEF1EF0040EF5EF1EF0E8C1E3F1E9C1FE
:103DC000E4F1220EE56F100EE66F6EEC24F00101B7
:103DD000E351E411D8A4EFEF1EF0F1EF1EF0F4EF81
:103DE0001EF0050EF5EF1EF0060E120001C008F0E1
:103DF00002C009F003C00AF004C00BF00506D8A009
:103E00000606052806E10628D8A409EF1FF00BEFE7
:103E10001FF018EF1FF0000E026E000E016E70EF23
:103E20001FF0084A092A0A4A0B2A0506D8A00606E6
:103E300008C0F6FF09C0F7FF000EF86E0800F55045
:103E40000009D8B426EF1FF028EF1FF05AEF1FF03B
:103E50000AC0F6FF0BC0F7FF000EF86E0800F55021
:103E60000009D8B436EF1FF038EF1FF05AEF1FF0FB
:103E700005500610D8B43FEF1FF041EF1FF05AEF86
:103E80001FF008C0F6FF09C0F7FF000EF86E08002B
:103E9000F5CF07F00AC0F6FF0BC0F7FF000EF86E73
:103EA0000800F5500718D8B458EF1FF05AEF1FF06C
:103EB00011EF1FF008C0F6FF09C0F7FF000EF86E03
:103EC0000800F5CF07F00AC0F6FF0BC0F7FF000EA1
:103ED000F86E0800F550075C016E026AD8A0020671
:103EE0001200010E11EC25F00101E351E411D8A4F8
:103EF0007CEF1FF07EEF1FF0EAEF1FF09251D8A485
:103F000084EF1FF086EF1FF09FEF1FF0010E5BECB8
:103F100023F00101E86F240EE819D8A492EF1FF0F6
:103F200094EF1FF0EAEF1FF0000E916F000E906FFC
:103F300055EC26F0010E0101926FEAEF1FF0920599
:103F4000D8A4A5EF1FF0A7EF1FF0D4EF1FF0010ECC
:103F50005BEC23F00101E96F240EE919D8A4B3EF5B
:103F60001FF0B5EF1FF0B7EF1FF0EAEF1FF0230EC1
:103F7000E919D8A4BEEF1FF0C0EF1FF0C8EF1FF083
:103F8000000E8F6F010E8E6F020E926FEAEF1FF020
:103F9000000E9025D96E030E9121DA6EE9C1DFFF84
:103FA000904B912BEAEF1FF0020E9219D8A4DBEF91
:103FB0001FF0DDEF1FF0EAEF1FF08E518F11D8A434
:103FC000E4EF1FF0E6EF1FF0EAEF1FF0000E926F34
:103FD000EAEF1FF0120020EE11F0070EDE6AE8068D
:103FE000FDE209500A100B100C100D100E100F10EE
:103FF0001010D8B4FEEF1FF000EF20F052EF20F0C9
:10400000010E196E0EEF20F0D89009360A360B36E5
:104010000C360D360E360F361036192A10AE13EF49
:1040200020F015EF20F004EF20F0D8901136123672
:104030001336143615361636173618360950015C05
:104040000A5002580B5003580C5004580D50055894
:104050000E5006580F50075810500858D8A033EF8C
:1040600020F035EF20F046EF20F00950015E0A50B5
:10407000025A0B50035A0C50045A0D50055A0E5058
:10408000065A0F50075A1050085A1180D890103213
:104090000F320E320D320C320B320A320932192E27
:1040A00015EF20F011C001F012C002F013C003F0B0
:1040B00014C004F015C005F016C006F017C007F0D4
:1040C00018C008F012000001DE51DF11D8A46BEF18
:1040D00020F06DEF20F073EF20F0DEC010F0DFC0B5
:1040E00011F079EF20F0FF0EDE25106EFF0EDF21BC
:1040F000116EE2A17EEF20F080EF20F089EF20F03A
:104100000CC001F0026A0AC003F00BC004F09DEC81
:1041100021F011BE8EEF20F090EF20F092EF20F012
:1041200096EF20F0000E116E000E106E000E0F6E56
:10413000000E0E6EA8EF20F0000E026E200E016E33
:104140000AC003F00BC004F09DEC21F00E4A0F2AC8
:1041500010500E5C0F50800A0D6E1150800A0D58E1
:10416000D8A0B5EF20F0B7EF20F09CEF20F00001D1
:10417000E2B1BDEF20F0BFEF20F0C8EF20F00CC09F
:1041800001F0026A0AC003F00BC004F09DEC21F0BC
:10419000010E0E240A6E000E0F200B6E1200095045
:1041A0000A100B100C100D100E100F101010D8B4B8
:1041B000DCEF20F0DEEF20F026EF21F0010E116E93
:1041C000ECEF20F0D89009360A360B360C360D3657
:1041D0000E360F361036112A10AEF1EF20F0F3EF45
:1041E00020F0E2EF20F00950015C0A5002580B5019
:1041F00003580C5004580D5005580E5006580F50D7
:10420000075810500858D8A008EF21F00AEF21F005
:104210001AEF21F00950015E0A50025A0B50035A5E
:104220000C50045A0D50055A0E50065A0F50075A9A
:104230001050085AD89010320F320E320D320C3214
:104240000B320A320932112EF3EF20F001C001F0D7
:1042500002C002F003C003F004C004F005C005F082
:1042600006C006F007C007F008C008F01200010EF3
:1042700065EC22F0000E65EC22F0000E0101916F5A
:10428000000E906F55EC26F0000E01018F6F000EAE
:104290008E6F000E926F000E0001FD6F000EFC6F1E
:1042A000000EFB6F000EFA6F000EED6F000EEC6F4C
:1042B000000EEB6F000EEA6F000EE96F000EE86F64
:1042C000000EE76F000EE66F000EE56F000EE46F64
:1042D000000E01018D6F000E8C6F000E8B6F000EB3
:1042E0008A6F000E896F000E886F000E0001FE6F4E
:1042F000000EF96F000EF86F000EF76F000EF66FEC
:10430000000E8A6EF00E936E000EF56F000EF46FC5
:10431000000EF36F000EF26F000EF16F000EF06FE3
:10432000000EEF6F000EEE6F899092908A9093903E
:104330008B9094908C909590120003500410D8B4F8
:10434000A4EF21F0A6EF21F0AFEF21F0035004100D
:10435000D8A4ADEF21F0AFEF21F0B4EF21F0015080
:104360005DEC27F001EF22F020EE04F00350D92697
:104370000450DA22DE50DE10D8B4C1EF21F0C3EFD2
:1043800021F0DEEF21F020EE04F00350D926045096
:10439000DA2210EE02F00350E1260450E222DE5051
:1043A000E65CE650800A096EDE50800A0958D8B0F3
:1043B000DCEF21F0DEEF21F001EF22F020EE02F041
:1043C0000350D9260450DA22DECF05F0DDCF06F007
:1043D00003C0D9FF04C0DAFFDECF07F0DDCF08F05D
:1043E00005500724D96E06500820DA6E01C0DFFFA1
:1043F00020EE02F00350D9260450DA22DE2A000E05
:10440000DD2212000001E2A108EF22F00AEF22F003
:1044100014EF22F013C00AF014C00BF011C00CF01E
:1044200012C00DF0F4EC25F016BE19EF22F01BEFD0
:1044300022F021EF22F015C01AF016C01BF025EF74
:1044400022F0000E1B6E000E1A6E000E196E000E8A
:10445000186E37EF22F0000E026E200E016E11C0B2
:1044600003F012C004F09DEC21F0184A192A1A50EA
:10447000185C1950800A176E1B50800A1758D8A074
:1044800044EF22F046EF22F02BEF22F00001E2B1E0
:104490004CEF22F04EEF22F058EF22F013C00AF05A
:1044A00014C00BF011C00CF012C00DF0F4EC25F0AC
:1044B00013C001F014C002F0E5EC26F01A500124FC
:1044C000116E1B500220126E12000101E36F0101F8
:1044D000E305D8A46EEF22F070EF22F096EF22F001
:1044E000000E816F000E806F000E836F000E826FD2
:1044F000000EE56F000EE46F000EE425D96E010E8C
:10450000E521DA6E000EDF6EE44BE52BE5BF92EF9E
:1045100022F0E55109E1800EE45DD8A092EF22F08F
:1045200094EF22F07CEF22F0BCEF22F0000E0201AB
:10453000816F000E806F000E836F000E826F000E81
:104540000101E76F000EE66F000EE625D96E020E40
:10455000E721DA6E000EDF6EE64BE72BE7BFBAEF1E
:1045600022F0E75109E1800EE65DD8A0BAEF22F013
:10457000BCEF22F0A4EF22F01200000E0101EE6F5A
:10458000000EED6F000EF06F030EEF6FF3EF22F0F1
:10459000EF51E625D96EF051E721DA6EDF500DECD0
:1045A00023F00101E351ED27E451EE23020EE8254B
:1045B000EA6F000EE921EB6FEF51EA1909E1F051C2
:1045C000EB19D8B4E6EF22F0E8EF22F0F1EF22F099
:1045D000ED3BEE3BF00EEE17ED510F0BEE13F00E30
:1045E000ED17EF4BF02B030EE825EA6F000EE921E3
:1045F000EB6FEA51EF5DF051800AEC6FEB51800AEE
:10460000EC59D8A006EF23F008EF23F0C8EF22F012
:10461000EDC1E6F1EEC1E7F112000101E56F2F0EE9
:104620000101E56516EF23F018EF23F028EF23F0E2
:104630003A0EE5611EEF23F020EF23F028EF23F080
:10464000D00EE525E36FE46BFF0EE4235AEF23F071
:10465000400EE5652EEF23F030EF23F040EF23F01E
:10466000470EE56136EF23F038EF23F040EF23F0FB
:10467000C90EE525E36FE46BFF0EE4235AEF23F048
:10468000600EE56546EF23F048EF23F058EF23F086
:10469000670EE5614EEF23F050EF23F058EF23F063
:1046A000A90EE525E36FE46BFF0EE4235AEF23F038
:1046B000E369E46912000101E66F0101E605D8A48F
:1046C00064EF23F066EF23F084EF23F0010E11EC8A
:1046D00025F0000E01018225D96E010E8321DA6ECC
:1046E000DF50E76F824B832B800E82198311D8A491
:1046F0007CEF23F07EEF23F0A2EF23F0000E836F18
:10470000000E826FA2EF23F0000E11EC25F0000ED8
:1047100002018225D96E020E8321DA6EDF5001017B
:10472000E76F0201824B832B800E82198311D8A47C
:104730009CEF23F09EEF23F0A2EF23F0000E836F97
:10474000000E826F0101E7511200046E0404D8A428
:10475000ACEF23F0AEEF23F0CCEF23F0010E70ECC2
:1047600025F0000E01018225D96E010E8321DA6E3B
:10477000DF50056E824B832B800E82198311D8A4E3
:10478000C4EF23F0C6EF23F0E8EF23F0000E836FB1
:10479000000E826FE8EF23F0000E70EC25F0000EA3
:1047A00002018225D96E020E8321DA6EDF50056E7A
:1047B000824B832B800E82198311D8A4E2EF23F061
:1047C000E4EF23F0E8EF23F0000E836F000E826F1A
:1047D00005501200000E946E000EAC6E000EAB6E13
:1047E000000E7E6E000E9D6E000EF26E000E9E6E2E
:1047F000000E9F6E000EC16E948E949C560EAF6E8E
:10480000000E7F6E7E86AC98AB8E9D8AAB9CAB888B
:10481000AC9CAC9AAC84560EAF6E000E7F6E000E50
:10482000F26E9D88000E9E6E100E996E310EC26E55
:10483000000EC16EAA0EC06E000EC46E000EC36ED6
:104840009D8C9F8C850ED56EF70ED66EC20ED76EE0
:10485000F29AF290D09EF28CF28E1200026E010457
:10486000D8A435EF24F037EF24F054EF24F0000EF5
:1048700001018025D96E010E8121DA6E02C0DFFFB1
:10488000804B812B800E80198111D8A44AEF24F02F
:104890004CEF24F052EF24F0000E816F000E806F79
:1048A0006DEF24F06DEF24F0000E02018025D96E2B
:1048B000020E8121DA6E02C0DFFF804B812B800E59
:1048C00080198111D8A467EF24F069EF24F06DEF0F
:1048D00024F0000E816F000E806F120074EF24F040
:1048E000E34BE42BE54BE62BE3C1D9FFE4C1DAFF50
:1048F000DF500101E76FE5C1F6FFE6C1F7FF000EEB
:10490000F86E0800F550E719D8A489EF24F08BEF72
:1049100024F097EF24F0E3C1D9FFE4C1DAFFDF50C0
:10492000D8A495EF24F097EF24F070EF24F0E3C1C2
:10493000D9FFE4C1DAFFDF50E76FE5C1F6FFE6C15A
:10494000F7FF000EF86E0800F550E75DE36FE46BCB
:10495000D8A0E4071200970E00018D6F000E8E6F35
:10496000000E906F090E8F6F010E916F100E926FF7
:1049700095C093F096C094F032EC27F0970E0001AA
:10498000A06F000EA16FD1EF24F0000E016EA0C049
:10499000D9FFA1C0DAFFDF502EEC24F00001A04BBC
:1049A000A12BA0C0D9FFA1C0DAFFDF50D8A4DBEF54
:1049B00024F0DDEF24F0C5EF24F012004FC053F0D7
:1049C00050C054F0000E0001DD6F000EDC6FFCEFF4
:1049D00024F04DC043F04EC044F0530E456E000E1F
:1049E000466E51C047F052C048F028EC08F04350E2
:1049F0000001DC274450DD2353C0F6FF54C0F7FF0D
:104A0000000EF86E0800F5500009D8A40AEF25F052
:104A10000CEF25F0E9EF24F0DCC04DF0DDC04EF0E6
:104A200012000101E56F0101E505D8A41AEF25F098
:104A30001CEF25F02EEF25F0825180190AE18351F9
:104A40008119D8B426EF25F029EF25F0010E2AEFC1
:104A500025F0000EE36FE46B40EF25F00201825178
:104A600080190AE183518119D8B439EF25F03CEF60
:104A700025F0010E3DEF25F0000E0101E36FE46B20
:104A800012009F0E096EFF0E0A6E07C00BF008C0E1
:104A90000CF009500B260A500C220C500AE11A0E99
:104AA0000B5CD8A056EF25F059EF25F0010E5AEF18
:104AB00025F0000E0D6E0E6A0D500E10D8B463EF87
:104AC00025F065EF25F06BEF25F05F0E0714076EFC
:104AD000086A6FEF25F007C007F008C008F0120061
:104AE000036E0304D8A477EF25F079EF25F08CEF5F
:104AF00025F00101825180190AE183518119D8B44E
:104B000084EF25F087EF25F0010E88EF25F0000EE9
:104B1000016E026A9DEF25F00201825180190AE1BF
:104B200083518119D8B497EF25F09AEF25F0010E43
:104B30009BEF25F0000E016E026A1200340EF66E35
:104B40004E0EF76E000EF86E01EEB3F010EE30F080
:104B50000900F5CFEEFFE550E150FAE103EE00F079
:104B6000800EEE6AE806FDE102EE00F0840EEE6AC9
:104B7000E806FDE101EE00F0B30EEE6AE806FDE1A5
:104B800000EEDCF0230EEE6AE806FDE15E905E9238
:104B9000000136EF26F0010E076E200E01180210FC
:104BA000D8B4D5EF25F0D7EF25F0F0EF25F0F70ECC
:104BB000036EFF0E046E01C005F002C006F0035044
:104BC000052604500622065009E1050E055CD8A012
:104BD000ECEF25F0EEEF25F0F0EF25F0000E076E7C
:104BE00007C001F0026A1200000E106E000E0F6E78
:104BF00005EF26F00EC001F0026A0CC003F00DC0F4
:104C000004F09DEC21F00F4A102A0F500A24D96EAF
:104C100010500B20DA6EDF500E6E0E50D8A413EF3A
:104C200026F015EF26F0FAEF25F0120014BE23EF60
:104C300026F0145006E11304D8B021EF26F023EF3C
:104C400026F031EF26F013C015F014C016F0151E33
:104C5000161E154A162A15C013F016C014F035EFAB
:104C600026F013C013F014C014F0120037EC21F03A
:104C7000EAEC23F0F70ED66EC20ED76E000E0101DD
:104C8000926F020E0001FE19D8A449EF26F04BEFF7
:104C900026F04DEF26F053EF26F071EC1FF03FECBD
:104CA00013F041EF26F007EF00F0000E0101E46F72
:104CB000000EE36F000EE325D96E030EE421DA6ED9
:104CC000000EDF6EE34BE42BE4BF70EF26F0E451FF
:104CD00009E1800EE35DD8A070EF26F072EF26F0B8
:104CE0005AEF26F012009F0E036EFF0E046E200E88
:104CF0000110056E000E0210066E035005260450CA
:104D0000062206500AE11A0E055CD8A08AEF26F0AA
:104D10008DEF26F0010E8EEF26F0000E016E026A76
:104D200012009F0E036EFF0E046E01C005F002C05C
:104D300006F0035005260450062206500AE11A0E1A
:104D4000055CD8A0A6EF26F0A9EF26F0010EAAEF89
:104D500026F0000E016E026A1200BF0E036EFF0EF7
:104D6000046E01C005F002C006F003500526045091
:104D7000062206500AE11A0E055CD8A0C2EF26F002
:104D8000C5EF26F0010EC6EF26F0000E016E026A96
:104D90001200D00E036EFF0E046E01C005F002C0BB
:104DA00006F0035005260450062206500AE10A0EBA
:104DB000055CD8A0DEEF26F0E1EF26F0010EE2EF71
:104DC00026F0000E016E026A120001C003F002C05C
:104DD00004F0EDEF26F0014A022A01C0D9FF02C01B
:104DE000DAFFDF50D8A4F7EF26F0F9EF26F0EBEF6B
:104DF00026F00350015C016E04500258026E12004E
:104E00000DEF27F0000E016E03C0D9FF04C0DAFFDA
:104E1000DF502EEC24F0034A042A03C0D9FF04C05B
:104E2000DAFFDF50D8A417EF27F019EF27F002EFD1
:104E300027F012002450525330372300245052538D
:104E4000303623002450525330352300245052531F
:104E500030342300286E756C6C29002444535400B0
:104E6000414C5400930E5C6E000E5D6E8DC07BF065
:104E70008EC07CF08FC07DF090C07EF091C07FF03E
:104E800092C080F05C0E0001816F000E826FDBEC3F
:104E90001DF0120001500302F3CF05F0F4CF06F02D
:104EA00001500402F350062602500302F350062676
:0C4EB00005C001F006C002F01200120064
:020000040020DA
:08000000FFFFFFFFFFFFFFFF00
:020000040030CA
:0E000000FF06191EF38381FFFFC0FFE0FF40E3
:00000001FF
